:020000040800F2
:10000000C842002045010008892F0008C5230008C8
:10001000152E0008E91C00083D4E000800000000F5
:100020000000000000000000000000009D450008E6
:10003000691D000800000000B1300008494A0008AE
:100040005F0100085F0100085F010008C93D00086A
:100050005F0100085F0100085F0100085F01000800
:100060005F0100085F0100085F0100085F010008F0
:100070005F0100085F0100085F0100085F010008E0
:100080005F0100085F0100085F0100085F010008D0
:100090005F0100085F0100085F0100085F010008C0
:1000A0005F0100085F0100085F0100085F010008B0
:1000B0005F0100085F010008AD4A00085F01000809
:1000C0005F0100085F0100085F0100085F01000890
:1000D0005F0100085F0100085F0100085F01000880
:1000E0005F0100085F0100085F0100085F01000870
:1000F0005F0100085F0100085F0100085F01000860
:100100005F0100085F0100085F0100085F0100084F
:100110005F0100085F0100085F0100085F0100083F
:100120005F0100085F0100085F0100085F0100082F
:10013000DFF80CD000F0A2FC00480047DD81000889
:10014000C84200200648804706480047FEE7FEE711
:10015000FEE7FEE7FEE7FEE7FEE7FEE7FEE7FEE777
:100160004D4A000831010008D2B201E000F8012B2D
:10017000491EFBD270470022F6E710B513460A4627
:1001800004461946FFF7F0FF204610BDF0B480EAA0
:100190000102D40F4200B2EB410F02D202460846E0
:1001A00011464A0042D0C30DDDB2C1F3C752AD1AA9
:1001B000202D35DAC1F3160141F4000204B1524298
:1001C000C5F1200602FA06F12A411044B3EBD05FD4
:1001D00023D0C4B1012DA0EBC35009DCF0BC4FF01B
:1001E000004202EAC35200F50000DBB200F038BA68
:1001F000400000F1807000EBC350A0F1807040EA35
:10020000D170490009E0490841EAC071A0EBC35030
:1002100000F50000400800EBC350F0BC00F017BA36
:100220006142012202EB4101001BF6E7F0BC70477E
:1002300081F00041AAE780F00040A7E780EA0102D0
:1002400010B502F00043400026D04A0023D04FEA08
:10025000106101EB1261C0F35600C2F3560240F484
:10026000000042F40002A0FB0220A1F17F014FEA4E
:100270000040140401D000F1010050EA124001D402
:100280004000491EC2B20C0604EBD010401C4008CE
:10029000802A02D003E0002010BD20F001000029D8
:1002A00000DA0020184310BD30B480EA010202F0E9
:1002B000004530F0004221F0004015D0A0B1C0F35D
:1002C000C753C2F3C754C2F31601C0F31600E41AB1
:1002D00041F4000140F400027D34914201D3641CDA
:1002E00000E04900002C02DA30BC002070474FF4D7
:1002F00000000023914201D3891A034340084FEACA
:100300004101F7D151B1914202D14FF0004105E0D6
:1003100002D24FF0010101E06FF0010103EBC45084
:10032000284430BC00F093B92DE9F04D81EA030474
:1003300004F0004B21F0004514464FF0000A23F072
:10034000004150EA050220D054EA01021DD0C5F355
:100350000A570246C5F31303C1F31300C1F30A564B
:1003600040F4801543F48013A7EB0608101BD64613
:1003700008F2FD3873EB050002D308F1010801E033
:1003800092185B41B8F1000F03DA00200146BDE886
:10039000F08D00204FF48011064684460EE0171BB6
:1003A00073EB050705D3121B63EB050306434CEA09
:1003B000010C49084FEA300092185B4150EA0107EE
:1003C000EDD152EA030012D082EA040083EA05016B
:1003D000084303D100224FF0004308E0101BAB415B
:1003E00002D20122002302E06FF0010253101AEB47
:1003F00006004CEB085110EB0A0041EB0B01BDE885
:10040000F04D00F05AB9C10F80EAE0700844CA0705
:100410009623002100F024B996230022114600F013
:100420001FB90EB540F2334102910021CDE9001110
:100430000A460B4600F04EF903B000BD00F0004242
:1004400020F00040C10DC0F3160040F400007F29E9
:1004500001DA00207047962903DCC1F19601C840FB
:1004600001E096398840002AF4D04042704720F0DD
:100470000040C10DC0F3160040F400007F2901DAEE
:1004800000207047962903DCC1F19601C8407047EF
:10049000963988407047C1F30A5210B5C1F3130171
:1004A00040F2FF3341F480119A4201DA002010BD7E
:1004B00040F233439A42A2F2334203DC524200F04C
:1004C000B6F810BD904010BD00F0004230F0004082
:1004D0000AD0C10D01F56071C0F3160042EA015166
:1004E000C2084007114370470020014670470000D2
:1004F00030B5002904DB4FF00044404264EB0101B9
:10050000002B04DB4FF00044524264EB03038B42A8
:1005100008BF824230BD000030B5002904DB4FF037
:100520000044404264EB0101002B04DB4FF0004427
:10053000524264EB0303994208BF904230BD000071
:1005400001F0004330B421F0004150EA010206D02E
:100550000A0DA2F56072C1F31301002A02DC30BC5F
:1005600000207047440F44EAC104C100E01830BCC9
:1005700000EBC25000F06BB8002801DBC0F1004076
:10058000002901DBC1F1004181427047002801DBF5
:10059000C0F10040002901DBC1F1004188427047F1
:1005A00030B50B46014600202022012409E021FA43
:1005B00002F59D4205D303FA02F5491B04FA02F540
:1005C0002844151EA2F10102F1DC30BD2DE9F05FD7
:1005D0000546002092469B468846064681464024B2
:1005E0001BE0284641464746224600F020F8534685
:1005F0005A46C01A914110D311461846224600F0BF
:100600004FFA2D1A67EB01084F46224601200021C0
:1006100000F046FA17EB00094E41201EA4F1010438
:10062000DFDC484631462A464346BDE8F09F202A93
:1006300004DB203A21FA02F00021704721FA02F38C
:10064000D040C2F12002914008431946704700296A
:10065000A8BF7047401C490008BF20F00100704748
:1006600010B4B0FA80FC00FA0CF050EA010404BFA8
:1006700010BC704749B1CCF1200421FA04F411FAFE
:100680000CF118BF012121430843A3EB0C01CB1D42
:100690000106000A002BBEBF002010BC704700EB13
:1006A000C35010440029A4BF10BC7047401C49002F
:1006B00008BF20F0010010BC704710B5002B08DA0D
:1006C000401C41F1000192185B411A4301D120F016
:1006D000010010BD2DE9F04D92469B4611B1B1FAD3
:1006E00081F202E0B0FA80F22032904600F0D8F9B0
:1006F00004460F4640EA0A0041EA0B0153465A46B7
:10070000084303D120463946BDE8F08D114653EA2F
:10071000010015D0C8F140025046FFF788FF05469A
:100720000E4650465946424600F0BAF9084301D0F9
:10073000012000E00020054346EAE0762C433743E1
:100740000A984FEA4453A0EB08004FEAD4240A3039
:100750004FF0000244EA47544FEAD72502D5002063
:100760000146D1E7010510196941DDE90845001985
:100770006941BDE8F04DA0E72DE9FE4F804681EAD2
:100780000300C00F0C46009021F0004123F000450B
:10079000B8EB0200A94105D24046214690461C46CE
:1007A0000B46024623F00040104304D14046214648
:1007B00003B0BDE8F08F270DC7F30A00C3F30A5159
:1007C0000290401A0190402866DAC3F3130040F407
:1007D000801B0098924620B10023D2EB030A63EB02
:1007E0000B0B01985946C0F14002504600F058F9F1
:1007F00006460D4650465946019A00F060F910EB46
:1008000008006141002487EA115284EAE7731A4321
:100810003BD0009A3AB3019A012A4FEA075210DC02
:10082000001B61EB02014FF0004202EA0752CDE9E2
:100830000042001C41F5801132462B46FFF74AFF6B
:10084000B6E7001B61EB0201001C41F580130018A4
:100850005B412018A2F5001747EB030140EAD57071
:10086000B6196D4111E06D084FEA360645EAC075CC
:100870004FEA0752001B61EB0201001C41F5801199
:1008800049084FEA30000019514132462B4603B067
:10089000BDE8F04FFFF711BF009801224000002390
:1008A000D0EB020263EBE073009821464FEAE0745C
:1008B000B8EB000061EB0401E9E783F000435BE77C
:1008C00081F0004158E72DE9FE4F81EA030404F06E
:1008D000004421F0004100944FF0000B23F000434E
:1008E00050EA010402D052EA030404D10020014678
:1008F00003B0BDE8F08FC3F30A54C1F30A552C448A
:10090000A4F2F3340194A0FB0254C1F3130141F4A7
:100910008011C3F3130343F4801301FB024400FB73
:10092000034E840A970A44EA815447EA8357A4FB9A
:10093000076802958D0A05FB07854FEA932C04FB97
:100940000C542705029D4FEA065847EA1637B5EBC7
:1009500008056EEB070C870E920E47EA811742EAF4
:100960008312A7FB0201B6EB0B0164EB00042B0D15
:1009700043EA0C335E1844EB1C50DA465146E7FB61
:100980000201C5F313044FEA0B3343EA14534FEA51
:100990000432019C43EA0603A4F10C040294009C77
:1009A000CDE900B4FFF796FEA2E72DE9F04D002354
:1009B0001A461B1A8A4103DB00200146BDE8F08D70
:1009C000C1F30A52C1F3130141F480154FF0000B3B
:1009D000D10702D100186D41521E0027044640F293
:1009E000FF11384601EB620A3E468046024600206F
:1009F0004FF48011FFF71BFEC2197141BB1846EB83
:100A00000100B4EB030C75EB000C04D3E41A65EBA6
:100A1000000517460E46241908F101006D41804675
:100A20003428E3DDF91946EB0600091BA84103D27F
:100A30004FF0FF32134601E0002213461BEB070084
:100A400046EB0A51BDE8F04DFFF737BEC1F30A523D
:100A5000C1F3130140F2FF3341F480119A4202DAEC
:100A600000200146704740F233439A42A2F23342DB
:100A700002DC5242FFF7DBBD00F012B8064C074D16
:100A800006E0E06840F0010394E80700984710345E
:100A9000AC42F6D3FFF750FBD8C80008F8C80008EE
:100AA000202A04DB203A00FA02F10020704791402E
:100AB000C2F1200320FA03F3194390407047202A23
:100AC00006DBCB17203A41FA02F043EAE07306E076
:100AD00041FA02F3D040C2F1200291400843194686
:100AE000704700007221034A11804FF0D8410988F5
:100AF000C8B270470008006C7421034A11804FF09F
:100B0000D8410988C8B270470008006C7321034AB5
:100B100011804FF0D8410988C8B270470008006CB6
:100B20002DE9F04387B000240025002005900690B1
:100B300001900290039004901022112101A800F06E
:100B40006CFD9DF805009DF8041000EB0120FC49A8
:100B500008809DF807009DF8061000EB0120F94978
:100B600008809DF809009DF8081000EB0120F64967
:100B700008809DF80B009DF80A1000EB0120F34956
:100B80000880F0480088FFF747FC8046F049FFF7EF
:100B90008BFB0646EA480088FFF73EFC07463146D5
:100BA000FFF7F4FAEB490860E8480088FFF734FCE7
:100BB0000746E749FFF778FB0646E3480088FFF75A
:100BC0002BFC80463146FFF7E1FAE34908609DF8C7
:100BD0000D009DF80C1000EB0120E04908809DF805
:100BE0000F009DF80E1000EB0120DD4908809DF8F4
:100BF00011009DF8101000EB0120DA4908809DF8E3
:100C000013009DF8121000EB0120D749088000F076
:100C100009FB0120D5490870E7E2D448007810B9F3
:100C200007B0BDE8F08301F099FED14800780028B4
:100C30007ED0D04800881E2815DDCE48008869285F
:100C400011DACD480088D7280DDDCB480088FF2871
:100C500009DA0120C9490870642009F0C9FE0020A2
:100C6000C3490870C1E2C3480088B0F5BC7F16DBF9
:100C7000C0480088B0F5E17F11DABF480088D72866
:100C80000DDDBD480088FF2809DA0220BB49087045
:100C9000642009F0ADFE0020B5490870A5E2B54812
:100CA00000885A2815DDB3480088C82811DAB248F0
:100CB000008850280DDDB0480088642809DA032038
:100CC000AE490870642009F093FE0020A84908701E
:100CD0008BE2A84800885A2815DDA6480088C82855
:100CE00011DAA548008878280DDDA34800888C28F3
:100CF00009DA0420A1490870642009F079FE002077
:100D00009B49087071E29B480088B0F58C7F18DD24
:100D100098480088B0F5C37F13DA974800885028B8
:100D20000FDD9548008864280BDA0520934900E020
:100D300029E00870642009F05BFE00208C490870EF
:100D400053E28C480088B0F58C7F16DD8948008816
:100D5000B0F5C37F11DA8848008878280DDD864811
:100D600000888C2809DA062084490870642009F07C
:100D70003FFE00207E49087037E200207F4908705E
:100D80007B49087031E27D480078002886D07B4896
:100D9000007807287ED2DFE800F07D04FCFBFAF93A
:100DA000D200E02004F01CF86D4909886E4A1288D0
:100DB000881AFFF728FB064668490988694A12889D
:100DC000881AFFF720FB07463146FFF76DFA6149A5
:100DD000086063490988644A12888818FFF713FB82
:100DE00081465C4801684846FFF728FA07465B4998
:100DF00009885C4A12888818FFF705FB8046394647
:100E0000FFF716FA06464FF08041FFF74DFA5249B8
:100E1000086050480068FFF72AFB494908800846E7
:100E20000088FFF7F9FA80464A4801684046FFF714
:100E300002FA07464649FFF701FA0646FFF717FB95
:100E40004049088044480068FFF711FB3E4908808C
:100E500008460088FFF7E0FA80463F4801684046B0
:100E6000FFF7E9F907463A49FFF7E8F90646FFF7C1
:100E7000FEFA364908803248028841A105A804F0EC
:100E800017FBB421742004F0F5FA042105A803F03F
:100E9000BFFD00E0A7E1B421942004F0EBFA3AA0F2
:100EA00003F09EFDB4219C2004F0E4FA254802885A
:100EB00033A105A804F0FCFA042105A803F0A8FD5D
:100EC00027490988284A12888818FFF79CFA804623
:100ED000204801684046FFF7B1F906461F490988D6
:100EE000204A12888818FFF78EFA07463146FFF726
:100EF0004DFB52D81448028821A105A804F0D8FA65
:100F0000B4214FF4807004F0B5FA042105A803F071
:100F10007FFDB4214FF4907004F0ACFA1AA003F0F6
:100F20005FFDB4214FF4947004F0A4FA07480288DE
:100F300013A105A804F0BCFA042105A82AE032E1B7
:100F40001E0000202000002022000020240000209D
:100F500000401C4630000020340000200800002023
:100F6000040000200A000020060000201B000020D2
:100F70006500002050000020520000201C000020CE
:100F800025303464000000002E000000CDE0ACE00D
:100F90008FE086E003F03CFD30E0B4214FF4807038
:100FA00004F068FA91A003F01BFD91480288AFF2AB
:100FB000300105A804F07CFAB4214FF4847004F0E9
:100FC00059FA042105A803F023FDB4214FF49470CD
:100FD00004F050FAAFF2500003F002FDB4214FF4D8
:100FE000987004F047FA83480288AFF26C0105A8B4
:100FF00004F05EFA042105A803F00AFD7E4800888B
:1010000000128DF804007C4800788DF805007B48BC
:10101000008800128DF80600784800788DF80700E7
:101020007348008800128DF80800714800788DF828
:1010300009007048008800128DF80A006D48007899
:101040008DF80B006E48008800128DF80C006C487B
:1010500000788DF80D006B48008800128DF80E00A6
:10106000684800788DF80F006748008800128DF8F6
:101070001000654800788DF811006448008800125F
:101080008DF81200614800788DF8130010221121AC
:1010900001A800F015FB00205D4908700024002520
:1010A000A2E000205A4908705A49087001F07AF904
:1010B0009AE000205649087004F07AFE50490880F2
:1010C00000F0B0F8E02003F08BFE4D48028852A1FA
:1010D00005A804F0EDF9A221402004F0CBF9052188
:1010E00005A803F095FC01247EE032210A2001F0DE
:1010F000E7F84B490880E02003F072FE484800887A
:10110000404908800846028843A105A804F0D0F9A8
:10111000A221BE2004F0AEF9052105A803F078FC59
:1011200000203B49087001255EE000203849087026
:1011300004F03EFE3449088000F074F8E02003F02B
:101140004FFE012C0DD12E48028833A105A804F0D2
:10115000AFF9A221402004F08DF9052105A803F084
:1011600057FC012D0DD1274802882BA105A804F0BA
:101170009FF9A221BE2004F07DF9052105A803F006
:1011800047FC2148028824A105A804F091F9A22176
:101190004FF4987004F06EF9052105A803F038FCAF
:1011A0000024002520E032210A2001F089F81C49A2
:1011B0000880E02003F014FE1948008813490880D5
:1011C0000846028814A105A804F072F9A2214FF480
:1011D000D47004F04FF9052105A803F019FC002094
:1011E0000B49087000E000BF00BF16E52D000000AD
:1011F00022000020240000201E00002020000020EB
:1012000008000020040000200A0000200600002042
:101210001C0000201B000020253035640000000069
:101220002E00002070B586B0002003900490059039
:1012300000F08AFD01F004FEFF2003F0C7FD01F07D
:10124000EBFD642000F0A0FD01F0ACF81F200121AF
:101250003C23DA00CDE900100021084601F0B4FC7F
:101260001F2001214FF488734FF4F072CDE9001074
:10127000C821002001F0A8FC2820AE230A22052165
:101280000090B14801F0CEFC28235F22EB214320DF
:1012900002F0DCFA28235F22EB214FF4CE7002F03B
:1012A000D5FA6423BE225021184600F0CBFD6423FA
:1012B0004FF4BE7250214FF4917000F0C3FD8C23A7
:1012C000BE227821642000F0BDFD8C234FF4BE7255
:1012D00078214FF4917000F0B5FD03F08BFD0320F1
:1012E00003F07EFD1F2003F071FD00F01BFE00F0F7
:1012F0002BFE3C230022D900104600F0A1FA0F215A
:10130000282004F0B7F801F071F803F0ABFD00F00D
:10131000C9FE8EA003F064FB00F0B2FEDC211E20AB
:1013200004F0A8F88BA003F05BFBDC2140F27710FF
:1013300004F0A0F889A003F053FB01F045F803F096
:101340007FFD00F0BFFCC8233C22D100002000F04C
:1013500077FA032003F044FDFF2003F037FD52210C
:101360006E2004F087F87FA003F03AFB7A216E200C
:1013700004F080F87DA003F033FB52214FF49B7002
:1013800004F078F87BA003F02BFB7A214FF49B70DC
:1013900004F070F879A003F023FBA221002004F0F0
:1013A00069F878A003F01CFBA2216C2004F062F81D
:1013B00077A003F015FB7848028878A103A804F011
:1013C00077F8A221402004F055F8052103A803F086
:1013D0001FFBA221962004F04DF872A003F000FB41
:1013E000724802886DA103A804F062F8A221BE2011
:1013F00004F040F8052103A803F00AFBA221F02025
:1014000004F038F86AA003F0EBFAA2214FF4AF70B1
:1014100004F030F85EA003F0E3FA684802885FA1A8
:1014200003A804F045F8A2214FF4987004F022F8C4
:10143000052103A803F0ECFAA2214FF4C37004F0D5
:1014400019F85FA003F0CCFA5F48028853A103A803
:1014500004F02EF8A2214FF4D47004F00BF805210B
:1014600003A803F0D5FAB421642004F003F857A0D0
:1014700003F0B6FAB421742003F0FCFF544800686E
:10148000FFF722F8044622460B4652A103A804F0B7
:101490000FF8092103A803F0BBFAB421F02003F0F0
:1014A000E9FF4DA003F09CFA40490988464A12889A
:1014B0008818FEF7A8FF0646454801683046FEF743
:1014C000BDFE0446344909883C4A12888818FEF754
:1014D0009AFF05462146FFF759F814D8B4214FF476
:1014E000807003F0C7FF3D480068FEF7EDFF04463B
:1014F00022460B4637A103A803F0DAFF092103A80F
:1015000003F086FA1BE0B4214FF4807003F0B2FFC1
:1015100033A003F065FAB4214FF4847003F0AAFFFE
:101520002E480068FEF7D0FF044622460B4629A14C
:1015300003A803F0BDFF092103A803F069FA01F035
:1015400071FD06B070BD00008DAD00084144D0A310
:10155000D7BC0000D0A3D7BC00000000B7B5BBD8F3
:1015600000000000B1EAB6A8B5E33100414431B251
:10157000C9D1F900B1EAB6A8B5E33200414432B2AC
:10158000C9D1F900B1EAB6A8B5E331A3BA000000A9
:101590002870612900000000080000202530356413
:1015A000000000004144313A000000000400002027
:1015B000B1EAB6A8B5E332A3BA0000000A000020E1
:1015C0004144323A00000000060000204B3A00007F
:1015D0003000002025660000433A0000340000205F
:1015E0002D00000010B5FF2000F03EF80446552CF9
:1015F00001D1002010BD5521FF2000F088F8FF2008
:1016000000F032F80446552C01D10020F2E7012009
:10161000F0E710B500F024FF10BD70B504460E468B
:10162000154608E03046721C96B200F01DF804F82A
:10163000010B681E85B2002DF4D170BD2DE9F0417B
:1016400007460C460026002509E036023919491BD9
:10165000491E88B200F008F80644681CC5B2A542CD
:10166000F3DB3046BDE8F08170B50446002600F09B
:10167000A5FF2546E11704EB11610912A02202EB38
:101680004101C8B200F066FF00F0E0FFE11704EB93
:1016900011610912A4EB0121C8B200F05BFF00F058
:1016A000D5FF00F08BFFA12000F054FF00F0CEFF2B
:1016B000002000F019FF064600F0A4FF304670BD80
:1016C00070B504460D46164606E02178284600F01F
:1016D0001EF8681C85B2641C3000A6F101018EB2B0
:1016E000F3D170BD2DE9F04105460E4617460024A2
:1016F00009E0E20026FA02F2D1B22A1990B200F013
:1017000006F8601CC4B2BC42F3DBBDE8F08170B5E2
:1017100004460E4600F052FF2546E11704EB116126
:101720000912A02202EB4101C8B200F013FF00F041
:101730008DFFE11704EB11610912A4EB0121C8B27E
:1017400000F008FF00F082FF304600F003FF00F0D9
:101750007DFF00F057FF0A2005F002FC70BD00007D
:1017600010B5044604F0B0FE642000F00DFB03F059
:1017700053FB002844D000F0F3FD2649088000F018
:1017800000FE2549088004F09FFE0A2000F0FCFAC4
:1017900003F042FB50B300F0E3FD2049088000F065
:1017A000F0FD1F49088004F08FFE0A2000F0ECFADB
:1017B00003F032FB80B100F0D3FD1A49088000F03D
:1017C000E0FD1949088001F04BFB0CB100F08EFDE3
:1017D0000120164908701CE00020154908801549B1
:1017E0000880154908801549088012E0002010493A
:1017F000088010490880104908801049088008E0D6
:1018000000200B4908800B4908800B4908800B49D0
:10181000088010BD44000020460000204800002041
:101820004A0000204C0000204E00002065000020EF
:1018300054000020560000205000002052000020DC
:1018400030B53024174D2C804FF0D84420803124FF
:101850002C8004124FF0D8452C803424114D2C805C
:101860004FF0D844218035242C800C124FF0D845FD
:101870002C8032240B4D2C804FF0D844228033240E
:101880002C8014124FF0D8452C803624054D2C8026
:101890006406238037242C801C124FF0D8452C80FE
:1018A00030BD00000008006C5048806940F0040022
:1018B0004E4988614E48006820F0F0004C490860AD
:1018C0004A48806940F010004849886149480068EA
:1018D00020F00F00474908604448806940F40070D8
:1018E000424988610846C06840F40070C8600846F4
:1018F000C06820F40070C8600846406820F440408A
:1019000048600846406840F4004048603A48006833
:101910003A490840384908600846006808600846A7
:10192000006820F480700860081D006820F0020044
:10193000091D08600846006820F460200860084619
:10194000006840F4602008600846006840F4801099
:1019500008600846006820F40060086026482830C7
:10196000006820F4700024492831086008460068A7
:10197000086021480830006820F007001E4908313F
:1019800008600846006840F007000860081D00680D
:1019900020F03800091D08600846006840F0380053
:1019A00008601548001D006840F001001249091D3B
:1019B00008600846006840F00800086000BF0E4854
:1019C000001D006810F0080FF9D10B48001D0068D9
:1019D00040F004000849091D086000BF0648001DCA
:1019E000006810F0040FF9D17047000000100240A9
:1019F000000801400010014004240140FFFFF000F6
:101A00002DE9FC4F82468B469046994640F20F13D3
:101A1000002240F2DF111046FFF712FF00F0C2FC77
:101A2000404608EBD071AAEB61018CB2484609EB45
:101A3000D071ABEB61018FB2404608EBD0710AEB7D
:101A400061018DB2484609EBD0710BEB61018EB29A
:101A50001F20012133462A46CDE900103946204691
:101A600001F0B2F86D20012106F1010C1FFA8CF390
:101A7000A4F1010C1FFA8CF2A7F1010CCDE90010C2
:101A80001FFA8CF1A4F1010C1FFA8CF001F09CF804
:101A90006D20012106F1020C1FFA8CF3A4F1020C57
:101AA0001FFA8CF2A7F1020CCDE900101FFA8CF19D
:101AB000A4F1020C1FFA8CF001F086F86D200121D0
:101AC00006F1030C1FFA8CF3A4F1030C1FFA8CF23D
:101AD000A7F1030CCDE900101FFA8CF1A4F1030C5F
:101AE0001FFA8CF001F070F86D200121A7F1010CB4
:101AF0001FFA8CF305F1010C1FFA8CF2A7F1010C0F
:101B0000CDE900101FFA8CF1A4F1010C1FFA8CF042
:101B100001F05AF86D200121A7F1020C1FFA8CF395
:101B200005F1020C1FFA8CF2A7F1020CCDE90010AE
:101B30001FFA8CF1A4F1020C1FFA8CF001F044F8AA
:101B40006D200121A7F1030C1FFA8CF305F1030CA2
:101B50001FFA8CF2A7F1030CCDE900101FFA8CF1EB
:101B6000A4F1030C1FFA8CF001F02EF8B62001212D
:101B7000CDE90010711C8BB2691C8AB288B239465B
:101B800001F022F8B620012106F1020C1FFA8CF3B5
:101B900005F1020C1FFA8CF2A7F1010CCDE900103F
:101BA0001FFA8CF105F1020C1FFA8CF001F00CF811
:101BB000B620012106F1030C1FFA8CF305F1030C8A
:101BC0001FFA8CF2A7F1020CCDE900101FFA8CF17C
:101BD00005F1030C1FFA8CF000F0F6FFB62001218E
:101BE000CDE90010711E8BB2691C8AB2611E88B2E9
:101BF000314600F0E9FFB620012106F1020C1FFA80
:101C00008CF305F1020C1FFA8CF206F1010CCDE900
:101C100000101FFA8CF1A4F1020C1FFA8CF000F0F6
:101C2000D3FFB620012106F1030C1FFA8CF305F156
:101C3000030C1FFA8CF206F1020CCDE900101FFA1A
:101C40008CF1A4F1030C1FFA8CF000F0BDFF03F03F
:101C5000D1F8BDE8FC8F10B5012001F085FF002010
:101C600001F082FF10BD000008B501460020009081
:101C7000034800900098084400900098008808BD30
:101C8000006C004008B500220092044A0092009ABD
:101C900002440092009A116008BD0000006C0040F0
:101CA0002221074A11804FF0D8410988C8B200F0BC
:101CB000BF00222111804FF0D841088070470000FA
:101CC0000008006C2221074A11804FF0D841098892
:101CD000C8B240F02000222111804FF0D841088086
:101CE000704700000008006C00BFFEE700BF044919
:101CF0000988C8B200F080018029F8D07047000040
:101D00000008006C10B599230E4C23804FF0D84387
:101D100018809A23238003124FF0D84423809B23FA
:101D2000084C23809B0619809C2323800B124FF0C4
:101D3000D84423809D23034C23804FF0D8431A803E
:101D400010BD00000008006C00B58E2000F036FFCA
:101D500000F02AFF024602F0BF028E2000F02EFFA4
:101D6000104600F027FF00BD7047000000B50220BC
:101D70000449088000204FF0D8410880FFF7B6FFE3
:101D800000BD00000008006C014608E042F6E06279
:101D900001E0531E9AB2002AFBDC4B1E99B20029C7
:101DA000F4DC7047FCB506460F4614461D46A01BE2
:101DB000401C82B26D233946304600F08FFFE81B8D
:101DC000401C82B2B6233946304600F0ABFFA31B5D
:101DD0005B1E9AB26B1E99B2731C98B26D2300F011
:101DE0007DFFA01B401C82B2B6232946304600F07E
:101DF00075FFEB1B5B1E9AB27B1C99B2631E98B2F7
:101E00006D2300F08FFFE81B401C82B2B6233946D9
:101E1000204600F087FF1F200121A5F1020C1FFAC8
:101E20008CF3A4F1020C1FFA8CF207F1020CCDE93D
:101E300000101FFA8CF106F1020C1FFA8CF000F072
:101E4000C3FEFCBDF0B506460F4614461D46A01B5A
:101E5000401C82B26D233946304600F03FFFE81B3C
:101E6000401C82B2B6233946304600F05BFFA31B0C
:101E70005B1E9AB26B1E99B2731C98B26D2300F070
:101E80002DFFA01B401C82B2B6232946304600F02D
:101E900025FFEB1B5B1E9AB27B1C99B2631E98B2A6
:101EA0006D2300F03FFFE81B401C82B2B623394689
:101EB000204600F037FFF0BD00B5012000F07EFEA7
:101EC00000F072FE024642F08002012000F076FE31
:101ED000104600F06FFE00BD00B590200449088058
:101EE00040204FF0D8410880FFF700FF00BD000000
:101EF0000008006C00B590200449088060204FF075
:101F0000D8410880FFF7F2FE00BD00000008006C19
:101F100070200349088082204FF0D8410880704724
:101F20000008006C2121074A11804FF0D841098830
:101F3000C8B240F02000212111804FF0D841088024
:101F4000704700000008006C2121074A11804FF003
:101F5000D8410988C8B200F0F300212111804FF068
:101F6000D8410880704700000008006C51B14FF064
:101F7000204252F8202042F001024FF0204343F863
:101F8000202009E04FF0204252F82020034B1A4055
:101F90004FF0204343F8202070470000FEFF0F0061
:101FA000D0E901121143C268114302691143426929
:101FB000114382691143C2691143026A1143426AA3
:101FC0001143826A1143C26A1143026B11434FF0FD
:101FD0002043026843F822108168082908D11A4674
:101FE000016852F8211041F04001026843F82210C4
:101FF000416B0968426B526841EA0211426B926878
:1020000041EA0221426B928941EA0241426B128A03
:1020100041EA0251426B127D41EA0261426B9269D0
:1020200011430268521C4FF0204343F82210C16A4A
:10203000B1F5804F1AD1816B0968826B526841EA11
:102040000211826B926841EA0221826B128A41EA94
:102050000251826B127D41EA0261826B92691143E7
:10206000026803EB8202C2F8041108E06FF07041CD
:102070004FF02043026803EB8202C2F8041170475C
:102080002221074A11804FF0D8410988C8B200F0D8
:10209000BF00222111804FF0D84108807047000016
:1020A0000008006C2221074A11804FF0D8410988AE
:1020B000C8B240F04000222111804FF0D841088082
:1020C000704700000008006C08B54FF4A070ADF830
:1020D000000010208DF8030003208DF802006946EF
:1020E000044800F009F84FF4A071024800F08DF8A0
:1020F00008BD0000000C01402DE9F041024600251A
:102100000026002000230024002791F803C00CF0D3
:102110000F0591F803C01CF0100F03D091F802C016
:102120004CEA050591F800C0BCF1000F31D01468ED
:1021300000202BE04FF0010C0CFA00F3B1F800C0C6
:102140000CEA03069E4220D183004FF00F0C0CFADC
:1021500003F7BC4305FA03FC4CEA040491F803C0FE
:10216000BCF1280F06D14FF0010C0CFA00FCC2F8AC
:1021700014C00AE091F803C0BCF1480F05D14FF03C
:10218000010C0CFA00FCC2F810C0401C0828D1D386
:102190001460B1F800C0BCF1FF0F34DD54680020BA
:1021A0002EE000F1080C4FF0010808FA0CF3B1F82A
:1021B00000C00CEA03069E4221D183004FF00F0CB1
:1021C0000CFA03F7BC4305FA03FC4CEA040491F84B
:1021D00003C0BCF1280F05D100F1080C08FA0CF877
:1021E000C2F8148091F803C0BCF1480F07D100F188
:1021F000080C4FF0010808FA0CF8C2F81080401CD7
:102200000828CED35460BDE8F08141617047016178
:102210007047000030B59124174D2C804FF0D84402
:10222000208092242C8004124FF0D8452C809524D5
:10223000114D2C804FF0D844218096242C800C1214
:102240004FF0D8452C8093240B4D2C804FF0D84470
:10225000228094242C8014124FF0D8452C8097248F
:10226000054D2C804FF0D844238098242C801C12DC
:102270004FF0D8452C8030BD0008006C01460F4857
:10228000006820F01F000D4A1060104600680843E7
:1022900010600A482C38006840F48000074A2C3A45
:1022A000106000BF05483438006810F0020FF9D004
:1022B00002481830006880B27047000034240140A2
:1022C00070B506460B460024002508E03046FFF7AF
:1022D000D5FF0444322004F061FE681CC5B29D4263
:1022E000F4DBB4FBF3F080B270BD000070B50024E5
:1022F00013480088FEF790F80646124801683046F9
:10230000FDF79CFF0546FEF799F804B20E480088D9
:1023100020440E4908800E480088FEF77DF80646E6
:102320000C4801683046FDF789FF0546FEF786F840
:1023300004B20948008820440849088070BD0000A4
:1023400054000020580000206000002050000020B1
:10235000560000205C000020620000205200002097
:1023600010B50023FEF7BEFB03434FF6FF7000EAF3
:102370008304FEF7C1FB00F0030040EA04031846A3
:1023800010BD10B50023FEF7C1FB03434FF6FF70ED
:1023900000EA8304FEF7B0FBC0F3810040EA0403C7
:1023A000184610BD4021064A11804FF0D8410988D7
:1023B000C8B200F07F004FF0D8410880704700009D
:1023C0000008006C00BFFEE72221074A11804FF091
:1023D000D8410988C8B200F0F300222111804FF0E3
:1023E000D8410880704700000008006C2221084A8C
:1023F00011804FF0D8410988C8B200F0F30040F0D6
:102400000400222111804FF0D8410880704700005D
:102410000008006C00B500200E4908600E480068F6
:1024200020F470400C4908600846006840F44050B1
:1024300008604FF000000949C1F8AC0104F0BAFD92
:1024400001200449086004F0B5FD00200349C1F8EB
:10245000A80100BDA8812142040C01400080214256
:102460000C48806940F008000A4988610A48006801
:1024700020F47F40084908600846006840F44C504A
:10248000086005480830006840F44060024908319F
:102490000860704700100240040C014000B50020A5
:1024A0000E4908600E48006820F470400C4908602E
:1024B0000846006840F4405008604FF001000949A8
:1024C000C1F8AC0104F076FD01200449086004F075
:1024D00071FD00200349C1F8A80100BDA881214277
:1024E000040C01400080214230B504460023154809
:1024F000006820F47040134908600846006840F402
:1025000000400860002513E000200F49086004F037
:1025100051FD01200D49C1F8A8015806030E0C48D1
:10252000006808B1581CC3B204F044FD681CC5B271
:10253000082DE9DB14B9FFF7B1FF01E0FFF76AFFEF
:10254000184630BD040C0140A88121420080214280
:102550002C81214210B503461448006820F47040D5
:10256000124908600846006840F4405008600020A6
:102570000F490860044615E0D8090E4908604FEA83
:1025800043604FEA106304F015FD01200A49C1F8C9
:10259000A80104F00FFD00200549086004F00AFDC1
:1025A000601CC4B2082CE7DB10BD0000040C014025
:1025B000A8812142AC8121420080214200B50E4811
:1025C000006820F470400C4908600846006840F438
:1025D000405008600120094908600949C1F8A80174
:1025E00004F0E8FC00200549086004F0E3FC00204A
:1025F0000349C1F8A80100BD040C0140AC8121428F
:102600000080214200B50E48006820F470400C495B
:1026100008600846006840F44050086000200949FE
:1026200008600949C1F8AC0104F0C4FC0120054967
:1026300008600549C1F8AC0104F0BCFC00BD000015
:10264000040C0140A88121420080214200B50023F2
:102650001348006820F4704011490860084600687B
:1026600040F40040086001200E49086004F0A2FC1C
:1026700001200D49C1F8A80104F09CFC07E0581C9A
:10268000C3B2FA2B03DDFFF7BDFF012000BD0748F1
:1026900000680028F3D10649086000BFF6E7000093
:1026A000040C0140AC812142008021422C81214256
:1026B000A881214210B501F05DFAFFF705FD00F099
:1026C00045FA00F0F9F902F01BFA01F02BFE10BDFB
:1026D0000146CA1701EB92729210B1EB820212D13D
:1026E000642091FBF0F200FB121050B94FF4C87057
:1026F00091FBF0F200FB121008B901207047002096
:10270000FCE70120FAE70020F8E700001CB5FFF71E
:1027100049FEFF200121431D4FF4CD72CDE9001089
:102720003C214B2000F050FA4FF482734FF4CD72ED
:102730003C214B20FFF786FB5A2340F295124121A2
:102740005020FFF72FFB78234FF4B4725F21502005
:10275000FFF728FBA2238B2284216320FFF722FBB3
:10276000A223C9228421A120FFF71CFBA22340F24F
:1027700007128421DF20FFF715FBA22340F2451248
:10278000842140F21D10FFF70DFBCC238B22AE21DC
:102790006320FFF707FBCC23C922AE21A120FFF75E
:1027A00001FBCC2340F20712AE21DF20FFF7FAFA3B
:1027B000CC2340F24512AE2140F21D10FFF7F2FA91
:1027C000F6238B22D8216320FFF7ECFAF623C922E7
:1027D000D821A120FFF7E6FAF62340F20712D8210C
:1027E000DF20FFF7DFFAF62340F24512D82140F24E
:1027F0001D10FFF7D7FAB92340F295127D2140F260
:102800005B10FFF7CFFAFF2340F29512C32140F28D
:102810005B10FFF7C7FA02F0EDFAE02002F0E0FAF1
:102820001F2002F0D3FAFFF77DFBFFF78DFB4FF47B
:1028300088733C22D1000020FFF702F893214FF467
:10284000B47002F017FE33A002F0CAF8D9214FF499
:10285000B47002F00FFE31A002F0C2F800F0D0FB1D
:102860008B21712002F006FE2EA002F0B9F88B2118
:10287000AF2002F0FFFD2CA002F0B2F88B21ED207A
:1028800002F0F8FD29A002F0ABF88B2140F22B10EA
:1028900002F0F0FD26A002F0A3F8B521712002F0AD
:1028A000E9FD24A002F09CF8B521AF2002F0E2FD82
:1028B00021A002F095F8B521ED2002F0DBFD1FA06C
:1028C00002F08EF8B52140F22B1002F0D3FD1CA0CF
:1028D00002F086F8DF21712002F0CCFD19A002F091
:1028E0007FF8DF21AF2002F0C5FD17A002F078F8D5
:1028F000DF21E32002F0BEFD14A002F071F8DF2119
:1029000040F2211002F0B6FD12A002F069F8FFF7C4
:10291000C7F91CBDC8B7B6A800000000B7B5BBD842
:102920000000000031000000320000003300000011
:1029300034000000350000003600000037000000C1
:10294000380000003900000030000000C7E5C1E396
:1029500000000000C9BEB3FD0000000010B501205A
:10296000FEF7FEFE02F058FA0849087008E003F08E
:10297000ABFD3220FFF708FA02F04EFA0349087067
:10298000024800780028F2D110BD00006600002047
:1029900000B501F086F8042000F010F9802000F066
:1029A00009F96420FFF7F0F9102000F007F93C2046
:1029B00000F000F96420FFF7E7F9112000F0FEF8BD
:1029C000002000F0F7F86420FFF7DEF9122000F095
:1029D000F5F8002000F0EEF8132000F0EFF80520E5
:1029E00000F0E8F8142000F0E9F83B2000F0E2F8ED
:1029F000152000F0E3F8002000F0DCF8162000F0CD
:102A0000DDF8002000F0D6F8172000F0D7F80020FD
:102A100000F0D0F8182000F0D1F8032000F0CAF838
:102A2000192000F0CBF80F2000F0C4F81A2000F0B5
:102A3000C5F8012000F0BEF81B2000F0BFF8002010
:102A400000F0B8F81C2000F0B9F8002000F0B2F84F
:102A50001D2000F0B3F8002000F0ACF81E2000F0BC
:102A6000ADF8002000F0A6F81F2000F0A7F8012024
:102A700000F0A0F8282000F0A1F8042000F09AF857
:102A8000402000F09BF8002000F094F8412000F076
:102A900095F8002000F08EF8FFF70EFAFFF754F9D2
:102AA00000F0CEF9FF2002F091F900F0B5F96420B2
:102AB000FFF76AF900BD000008B54CF23370ADF8BD
:102AC000000003208DF8020018208DF803006946ED
:102AD0001A48FFF711FB4FF68070ADF80000694609
:102AE0001748FFF709FB0120ADF8000069461548BB
:102AF000FFF702FB4FF48050ADF800006946114823
:102B0000FFF7FAFA4FF48060ADF8000010208DF85E
:102B1000030069460C48FFF7EFFA4FF480610A485A
:102B2000FFF775FB4FF44070ADF8000048208DF8BA
:102B3000030069460448FFF7DFFA08BD00140140AE
:102B40000018014000200140001C014000B597B072
:102B500002200190002002900520039001200490A3
:102B6000002005900690079006200890002009900C
:102B70000A9010200B9000200C900D900E900F905A
:102B800010904FF4805011900020129013901490E8
:102B900001A81590169008A8FFF702FA0121062057
:102BA000FFF7E4F917B000BD00204FF0D8410988C5
:102BB000C8B270474FF0D84108807047014908807B
:102BC000704700000008006C2DE9F04306460C46F3
:102BD00015461F46DDE907984FF4887300224FF42D
:102BE000F0711046FEF72CFE404602F0F9F83B4625
:102BF000224629463046FFF70DFB90200849088001
:102C0000B9F1000F04D0B0204FF0D841088003E0A4
:102C100090204FF0D8410880FFF768F8BDE8F083B6
:102C20000008006C2DE9F04F05460E461746984601
:102C3000DDF824A01020284908804FF0D8400088F3
:102C4000C4B204F0030444F03004102008804FF0B4
:102C5000D84004800A20FFF797F807EB0A0083B2F8
:102C600006EB080081B23A463046FEF7E9FD4FF028
:102C700000091CE007EB090081B2304602F0FAFBC4
:102C80000220154908804FF0000B0AE015F8010BEF
:102C90004FF0D8410880FFF729F80BF101001FFA27
:102CA00080FBC345F2DB09F101001FFA80F9D14531
:102CB000E0DB1020084908804FF0D8400088C4B2FB
:102CC00044F00F04102008804FF0D8400480012009
:102CD000FFF75AF8BDE8F08F0008006CF0B5054624
:102CE0000C4616461F464FF4887300224FF4F071CD
:102CF0001046FEF7A5FDF8B202F072F8A819401EC2
:102D000081B2234622462846FFF784FA90200449E0
:102D1000088080204FF0D8410880FEF7E7FFF0BD23
:102D20000008006CF0B505460C4616461F464FF4E9
:102D3000887300224FF4F0711046FEF781FDF8B25F
:102D400002F04EF8A019401E83B2224629462846BA
:102D5000FFF760FA90200449088080204FF0D841A6
:102D60000880FEF7C3FFF0BD0008006C2DE9F041BC
:102D70000746884614461D46284600F037F8C5F138
:102D8000040007FA00F60F20284100EA0800064375
:102D900006F00F06202C0CDA114801684FF00100F4
:102DA00000FA04F041EA00014FF0E020C0F8001101
:102DB0000DE00C480068A4F120014FF0010202FA76
:102DC00001F240EA02004FF0E021C1F80401064898
:102DD000005D40EA061004490855BDE8F081000096
:102DE00000E100E004E100E000E400E00146072328
:102DF00023EA01021202054B18684FF6FF03184040
:102E0000034B18431043014B186070470CED00E072
:102E10000000FA0500BFFEE700B58E2007490880D4
:102E20004FF0D8400088C2B242F080028E20088065
:102E30004FF0D8400280FEF759FF00BD0008006C3B
:102E400000B58E20FFF7BAFEFFF7AEFE024642F055
:102E500001028E20FFF7B2FE1046FFF7ABFE00BD69
:102E60003F4800883F49098888421ADD3D4800886C
:102E70003D490988884204DD3A4800883B4908807A
:102E800029E03748008838490988884204DD3648F7
:102E90000088364908801EE03148008833490880A0
:102EA00019E03048008830490988884204DA2D4802
:102EB00000882E4908800EE0294800882A490988A0
:102EC000884204DA284800882849088003E024481A
:102ED00000882649088026480088264909888842B3
:102EE0001ADD2448008824490988884204DD2148E5
:102EF00000882249088029E01D4800881E49098869
:102F0000884204DD1C4800881C4908801EE01848DF
:102F100000881A49088019E016480088164909886F
:102F2000884204DA13480088144908800EE01048EB
:102F3000008811490988884204DA0F4800880F493F
:102F4000088003E00A4800880C4908800748008888
:102F50000B490880094800880A490880704700002A
:102F600044000020480000204C00002040000020C9
:102F7000460000204A0000204E00002042000020B1
:102F800054000020560000207047000070B500215A
:102F900000230F22C4780CB3164C246804F4E064B8
:102FA000C4F5E064210AC1F10403CA40447804FA7C
:102FB00003F184781440214309010F4C0678A15590
:102FC000047804F01F050124AC4005786D114FF022
:102FD000E02606EB8505C5F8004109E0047804F019
:102FE0001F050124AC40054D0678761145F82640B2
:102FF00070BD00000CED00E000E400E080E100E0C6
:103000002221074A11804FF0D8410988C8B240F008
:103010004000222111804FF0D84108807047000005
:103020000008006C2221074A11804FF0D84109881E
:10303000C8B200F0DF00222111804FF0D841088093
:10304000704700000008006C0149086270470000EA
:1030500000000E4200F00101114A1160C0F340016E
:10306000104AC2F8AC11C0F380010F4A1160C0F3DE
:10307000C001A2F104021160C0F30011A2F1040228
:103080001160C0F34011094A1160C0F3801102F1D0
:10309000040211604FEAD011024AC2F89811704739
:1030A000A801224200002242A401224298012442A7
:1030B000704700002DE9F04F87B0142102A8FDF7FA
:1030C0005AF806F0B1F800240CE0210204EB4402A7
:1030D000C2EB4412FE4B03EB42003A2201F03EF9F0
:1030E000601CC4B2FB4800788442EEDB1B2006F073
:1030F00095FE402006F092FE1B2006F08FFE512028
:1031000006F08CFE002006F089FEF34800780128C6
:1031100006D1F2480078401EC7B2F048067813E0A6
:10312000ED48007802280FD1ED480078012802DD33
:10313000E848067807E0EA480078012803D1E54826
:103140000078401EC6B200273C46E8E20525A7E00D
:1031500004EB4400C0EB4410DD4901EB40001730A4
:10316000691EC1EBC1010844827804EB4400C0EB46
:103170004410D74901EB40001730691EC1EBC10173
:103180000844407802EB00201FFA80F8A8F57F4041
:10319000FF387DD0D3A000F0E9FA4246D3A102A8BF
:1031A00002F086F9042102A800F0EEFAD1A000F0A6
:1031B000DDFA0D2006F032FE0A2006F02FFE2A4628
:1031C000CDA102A802F074F9012102A800F0DCFAF6
:1031D000CBA000F0CBFACBA000F0C8FA04EB44017E
:1031E000C1EB4411BA4A02EB410117316A1EC2EB2E
:1031F000C20211448B7904EB4401C1EB4411B44A7F
:1032000002EB410117316A1EC2EBC2021144497937
:1032100003EB0120FDF7F7F8BB490090FDF744F8F8
:10322000834604EB4401C1EB4411A94A02EB41017E
:1032300017316A1EC2EBC20211440B7904EB440140
:10324000C1EB4411A24A02EB410117316A1EC2EBE5
:10325000C2021144C97803EB0120FDF7D4F85946A6
:103260000190FCF793FF81464846FDF72DF9024691
:103270000B46CDE90001A5A102A802F019F905212C
:1032800002A800F081FAA3A000F070FA0D2000E07F
:1032900004E006F0C3FD0A2006F0C0FD681EC5B2BA
:1032A000002D3FF755AF04EB4401C1EB4411884AB0
:1032B00002EB41018A7904EB4401C1EB4411844BD8
:1032C00003EB4101497902EB0120FDF79CF88146AF
:1032D00092494846FDF750F97ED091A000F046FA99
:1032E0000D2006F09BFD0A2006F098FD90A000F04E
:1032F0003DFA04EB4400C0EB4410754901EB40007B
:10330000817904EB4400C0EB4410714A02EB4000A9
:10331000407901EB00201FFA80F8424673A102A811
:1033200002F0C6F8042102A800F02EFA71A000F005
:103330001DFA0D2006F072FD0A2006F06FFD7EA03A
:1033400000F014FA04EB4400C0EB4410604901EBB8
:103350004000017A04EB4400C0EB44105C4A02EBED
:103360004000C07901EB00201FFA80F842465FA1BF
:1033700002A802F09DF8042102A800F005FA5DA061
:1033800000F0F4F90D2006F049FD0A2006F046FD94
:103390006BA000F0EBF904EB4400C0EB44104C4987
:1033A00001EB4000817A04EB4400C0EB4410484A32
:1033B00002EB4000407A01EB00201FFA80F8424601
:1033C0004AA102A802F074F8042102A800F0DCF976
:1033D00048A000F0CBF900E09FE10D2006F01EFDB3
:1033E0000A2006F01BFD58A000F0C0F904EB4401D0
:1033F000C1EB4411364A02EB41018A7B04EB4401E4
:10340000C1EB4411324B03EB4101497B02EB01203C
:10341000FCF7F9FF3C490090FCF746FF834604EBBC
:103420004401C1EB44112A4A02EB41010A7B04EB3F
:103430004401C1EB4411264B03EB4101C97A02EB75
:103440000120FCF7E0FF59460190FCF79FFE814602
:103450004846FDF739F802460B46CDE900012BA19D
:1034600002A802F025F8052102A800F08DF929A094
:1034700000F07CF90D2006F0D1FC0A2006F0CEFC0D
:1034800033A000F073F904EB4401C1EB4411104A7E
:1034900002EB41018A7C04EB4401C1EB44130C496B
:1034A00001EB4301497C02EB0120FCF7ACFF16491C
:1034B0000090FCF7F9FE834604EB4401C1EB441194
:1034C000034A02EB41010A7C04EB440144E00000A2
:1034D00070000020010000201700002016000020CE
:1034E000000000202020503D000000002530346402
:1034F0000000000050610000253031640000000031
:1035000023000000473D000000401C4625352E32B8
:103510006600000050612F636D32000000FF7F479E
:103520002D2D2D2D2D2D2D2D2D2D2D2D2D2D2D00F8
:10353000504D61783D000000504176673D0000002D
:10354000504D696E3D000000474D61783D00000020
:10355000474176673D000000C1EB4411794B03EB16
:103560004101C97B02EB0120FCF74DFF5946019058
:10357000FCF70CFE81464846FCF7A6FF02460B46C8
:10358000CDE90001AFF27C0102A801F091FF052115
:1035900002A800F0F9F8AFF2840000F0E7F80D207F
:1035A00006F03CFC0A2006F039FC67A000F0DEF8CB
:1035B00004EB4401C1EB4411624A02EB41018A7DF4
:1035C00004EB4401C1EB44115E4B03EB4101497D27
:1035D00002EB0120FCF717FF5D490090FCF764FE49
:1035E000834604EB4401C1EB4411564A02EB41010E
:1035F0000A7D04EB4401C1EB4411524B03EB410142
:10360000C97C02EB0120FCF7FEFE59460190FCF755
:10361000BDFD81464846FCF757FF02460B46CDE903
:103620000001AFF2181102A801F042FF052102A823
:1036300000F0AAF8AFF2241000F098F80D2006F080
:10364000EDFB0A2006F0EAFBAFF22C1000F08EF83A
:103650000D2006F0E3FB0A2006F0E0FB04EB44003B
:10366000C0EB4410374901EB4000817804EB440083
:10367000C0EB4410334A02EB4000407801EB0020DD
:103680001FFA80FA33A000F071F85246AFF2A4118D
:1036900002A801F00DFF042102A800F075F82FA088
:1036A00000F064F804EB4400C0EB4410254901EB42
:1036B0004000C2782AA102A801F0FAFE022102A865
:1036C00000F062F825A000F051F804EB4400C0EBD4
:1036D00044101C4901EB4000027921A102A801F02D
:1036E000E7FE022102A800F04FF80D2006F096FB3D
:1036F0000A2006F093FB1CA000F038F8621C18A109
:1037000002A801F0D5FE022102A800F03DF80D202C
:1037100006F084FB0A2006F081FB601CC4B2B442B0
:10372000FFF614AD0D2006F079FB0A2006F076FBBB
:103730000D2006F073FB0A2006F070FB07B0BDE811
:10374000F08F000070000020474D696E3D000000C2
:1037500000401C46446174613A0000002F000000E4
:1037600025303264000000004E4F3A0010B5044688
:1037700006E014F8010B06F051FB022003F022FCD6
:1037800020780028F5D110BD70B504460D460026FE
:1037900008E014F8010B06F041FB022003F012FCD4
:1037A000701CC6B2207808B1AE42F2DB70BD0000DA
:1037B00008B501214FF48A7000F0C6F94FF480502B
:1037C000ADF8000010208DF8030003208DF80200F2
:1037D00069461B48FEF790FC4FF480511848FEF7ED
:1037E00014FD4FF47C60ADF8000069461548FEF703
:1037F00083FC4FF47C611348FEF707FDC020ADF851
:10380000000069461048FEF777FCC0210E48FEF71D
:10381000FCFC2020ADF8000069460B48FEF76CFC6C
:1038200020210948FEF7F3FC1020ADF80000282005
:103830008DF8030069460448FEF75EFC08BD0000F1
:103840000008014000100140002001402DE9FC4F1C
:1038500082468B469046994640F20F13002240F272
:10386000DF111046FDF7ECFFFEF79CFD404608EB2C
:10387000D071AAEB61018CB2484609EBD071ABEB79
:1038800061018FB2404608EBD0710AEB61018DB245
:10389000484609EBD0710BEB61018EB21F2001216C
:1038A00033462A46CDE9001039462046FFF78CF909
:1038B000B620012106F1010C1FFA8CF3A4F1010CD2
:1038C0001FFA8CF2A7F1010CCDE900101FFA8CF160
:1038D000A4F1010C1FFA8CF0FFF776F9B620012154
:1038E00006F1020C1FFA8CF3A4F1020C1FFA8CF201
:1038F000A7F1020CCDE900101FFA8CF1A4F1020C23
:103900001FFA8CF0FFF760F9B620012106F1030CD5
:103910001FFA8CF3A4F1030C1FFA8CF2A7F1030C2D
:10392000CDE900101FFA8CF1A4F1030C1FFA8CF002
:10393000FFF74AF9B6200121A7F1010C1FFA8CF319
:1039400005F1010C1FFA8CF2A7F1010CCDE9001072
:103950001FFA8CF1A4F1010C1FFA8CF0FFF734F977
:10396000B6200121A7F1020C1FFA8CF305F1020C1D
:103970001FFA8CF2A7F1020CCDE900101FFA8CF1AE
:10398000A4F1020C1FFA8CF0FFF71EF9B6200121FA
:10399000A7F1030C1FFA8CF305F1030C1FFA8CF24C
:1039A000A7F1030CCDE900101FFA8CF1A4F1030C70
:1039B0001FFA8CF0FFF708F96D200121CDE9001006
:1039C000711C8BB2691C8AB288B23946FFF7FCF8C9
:1039D0006D20012106F1020C1FFA8CF305F1020C97
:1039E0001FFA8CF2A7F1010CCDE900101FFA8CF13F
:1039F00005F1020C1FFA8CF0FFF7E6F86D200121AB
:103A000006F1030C1FFA8CF305F1030C1FFA8CF27C
:103A1000A7F1020CCDE900101FFA8CF105F1030C9F
:103A20001FFA8CF0FFF7D0F86D200121CDE90010CE
:103A3000711E8BB2691C8AB2611E88B23146FFF7D3
:103A4000C3F86D20012106F1020C1FFA8CF305F179
:103A5000020C1FFA8CF206F1010CCDE900101FFADE
:103A60008CF1A4F1020C1FFA8CF0FFF7ADF86D2079
:103A7000012106F1030C1FFA8CF305F1030C1FFA68
:103A80008CF206F1020CCDE900101FFA8CF1A4F1C2
:103A9000030C1FFA8CF0FFF797F801F0ABF9BDE8C3
:103AA000FC8F00B58820FFF789F80B20FFF782F81C
:103AB0006420FEF769F98920FFF780F80320FFF7FB
:103AC00079F86420FEF760F90120FFF777F801200C
:103AD000FFF770F80020FFF76DF86420FEF754F947
:103AE00000BD00B5FEF714FA00F05AFF01F05CF9D2
:103AF000FEF7FCF804F04AF8FFF78EF9FEF7F6F847
:103B000002F0E2FC00BD000029B1064A52690243FE
:103B1000044B5A6104E0034A52698243014B5A61E3
:103B2000704700000010024029B1064AD2690243E2
:103B3000044BDA6104E0034AD2698243014BDA6143
:103B4000704700000010024029B1064A9269024302
:103B5000044B9A6104E0034A92698243014B9A61E3
:103B600070470000001002400149086070470000E3
:103B70004004424210B5012140F2FD10FFF7E4FF7E
:103B800001210802FFF7C0FF01214FF4A040FFF719
:103B9000CBFF10BD10B501460022002300204A11C2
:103BA000012A02D1094C236806E0022A02D1074CFF
:103BB000236A01E0054C636A01F01F02012494406E
:103BC0001C4201D0012000E0002010BD0010024086
:103BD00000210A4A11700A4A82F82010012802D0F6
:103BE000042808D103E00121044A117004E00521F2
:103BF000024A117000E000BF00BF70472010024071
:103C00000010024001490860704700003C04424235
:103C10000249096A0143014A1162704700100240DB
:103C20000348008840F010000149088070470000F8
:103C300004280040034800884FF6EF71084001490E
:103C4000088070470428004070B500260024002535
:103C50003A4806883604001D008806443848B6FBFA
:103C6000F0F438480088A0423AD036490C8040F23F
:103C7000B2750EE02846FEF72BFD30B1B4F5B77FE4
:103C800002D3A4F5B77402E006E0A4F26D14681C38
:103C900085B2B4F5B67FEDD800BF2B4885800025EE
:103CA00016E029498888FEF713FD30B1012D04D1B3
:103CB0001D2C01D31D3C09E00CE02448405DA042CE
:103CC00003D82248405D241A00E003E0681C85B256
:103CD0001C2CE6D200BF681C1B498871601CC8718F
:103CE0001748B6FBF0F100FB11644FF46160B4FBC0
:103CF000F0F0154908704FF46160B4FBF0F100FB7F
:103D000011403C21B0FBF1F00F4948704FF4616065
:103D1000B4FBF0F100FB11403C21B0FBF1F201FBE0
:103D20001200094988700B46DA799979988800F071
:103D30000FF805490872002070BD000018280040E7
:103D40008051010068000020BE120020C9C8000890
:103D5000F0B503460C461546642093FBF0F0C6B25E
:103D6000642093FBF0F700FB1730C1B2132E02DD85
:103D700001F16400C1B20846CF1701EB977701EB60
:103D8000A702072092FBF0F700FB172082B2571919
:103D9000601EDFF830C01CF80000384482B2CF1734
:103DA00001EB9777BF10B1EB870703D1032C01DA42
:103DB000501E82B2072092FBF0F700FB1720C0B222
:103DC000F0BD0000BDC8000800B51048008810F024
:103DD000010F01D0FFF738FF0C48008810F0020FE8
:103DE00005D00A48008820F00200084908800748EA
:103DF000008840F6FA7108400449088000BF034873
:103E0000008810F0200FFAD000BD00000428004008
:103E100029B1064A12880243044B1A8004E0034A7F
:103E200012888243014B1A8070470000002800402E
:103E30001CB500240420FDF717FFA0F5A041503960
:103E400048D001214FF0C050FFF76EFE0120FFF770
:103E5000FBF8FDF700FF0120FFF7BAFE04E0601C4D
:103E6000C4B20A2003F08BF84120FFF793FE08B993
:103E7000FA2CF4DBFA2C01DB01201CBD4FF480701E
:103E8000FFF7C6FE0120FFF7BDFE00F0CDF800F001
:103E9000D5F801210846FFF7BBFF00F0C5F8FFF792
:103EA000BFFE47F6FF7000F0AFF800F0BDF8372016
:103EB00000210A230222CDE900100C2140F2D97022
:103EC00000F01AF8FFF7B6FE45F250010420FDF7A6
:103ED000D9FE07E000F0B2F801210846FFF798FF8D
:103EE00000F0A2F80223032200210846FEF73EFF5D
:103EF000FFF7AAFE0020C0E72DE9F04F06460F4667
:103F000090469946DDE909AB002440F2B270864242
:103F100003DB40F63300864202DD0120BDE8F08F6E
:103F200040F2B2750AE02846FEF7D2FB10B12F48E6
:103F3000044401E02E480444681C85B2B542F2DB1B
:103F4000781EC7B2002510E02A48405D40F2A32148
:103F5000484304EBC0143046FEF7BAFB18B1012DFC
:103F600001D125480444681C85B2BD42ECDBA8F1B0
:103F7000010040F2A321484304EBC014C9EB4910EF
:103F8000C0EB092004EB0014CAEB0A1004EB800418
:103F90005C441A48C06940F080501849C86108461E
:103FA000C06940F00060C8611548006840F4807046
:103FB000134908601348008840F010001149088038
:103FC000104918310C80200C091F08800D4800880A
:103FD00020F010000B49088000BF0A48008810F04C
:103FE000200FFAD0FFF730FE002097E70085E201AE
:103FF0008033E101C9C8000880510100001002406F
:10400000007000400428004000B50246FFF708FE9B
:10401000C2F3034003490880091D0A80FFF70AFE26
:1040200000BD00000828004000BF0348008810F0D1
:10403000200FFAD07047000004280040064800888E
:104040004FF6F77108400449088000BF0248008815
:1040500010F0080FFAD070470428004000B52D4832
:10406000806940F001002B4988610846806940F072
:10407000040088610846806940F4805088612648C1
:104080000068C0F31300244908600846006823490B
:1040900008432149086020480C30006840F0E000E7
:1040A0001D490C3108601E4800881D4908800846DB
:1040B000008840F4007008800846008840F4807052
:1040C00008800846008840F0040008800846008800
:1040D00008800846008840F00200088008460088F2
:1040E00040F0010008800846008840F03800088051
:1040F0000846008808800846808840F04000888094
:104100000846008840F040000880FF2000F00AF8D0
:1041100000BD000000100240000801400000B0BBDC
:10412000003001400246002105E0481CC1B2C82908
:1041300001DD002070470C48008910F0020FF4D018
:1041400009488281002105E0481CC1B2C82901DD6F
:104150000020EFE70448008910F0010FF4D0024876
:104160008089C0B2E6E700000030014000B587B0AA
:104170004FF46040ADF8180018208DF81B000320A4
:104180008DF81A0006A91848FDF7B6FF4FF46041F4
:104190001548FEF73CF80020ADF804004FF482709B
:1041A000ADF806000020ADF808000220ADF80A00C6
:1041B0000120ADF80C004002ADF80E003820ADF83B
:1041C00010000020ADF812000720ADF8140001A97E
:1041D000064800F0C5F90121044800F061F8FF200D
:1041E00000F006F807B000BD000C014000380040A8
:1041F00070B50546002405E0601CC4B2C82C01DD82
:10420000002070BD02210E4800F09CF90028F3D078
:1042100029460B4800F0A2F9002405E0601CC4B256
:10422000C82C01DD0020ECE70121054800F08AF9E7
:104230000028F3D0024800F08EF9C0B2E1E7000098
:104240000038004010B50446074800884FF6C77193
:10425000084005490880084600882043088001215D
:10426000014800F01DF810BD0038004008B50121DC
:104270000420FFF769FC1020ADF800008DF8030062
:1042800003208DF8020069460448FDF735FF102130
:104290000248FDF7BCFFFFF7E1FE08BD0008014042
:1042A00021B1028842F04002028004E002884FF609
:1042B000BF731A400280704710B50020054908609E
:1042C0004FF00600FFF794FF01200349C1F8B00149
:1042D00010BD0000B08121420080214210B504468B
:1042E0002403FFF7E9FF00F07BF800200B4908608A
:1042F0004FF02000FFF77CFFC4F30740FFF778FF83
:10430000C4F30720FFF774FFE0B2FFF771FF01204D
:104310000349C1F8B00100F063F810BDB08121423B
:104320000080214208B54FF48050ADF80000102005
:104330008DF8030003208DF8020069460648FDF75A
:10434000DBFE4FF480510448FDF761FFFFF70EFFDD
:104350000020FFF777FF08BD000C01402DE9F04178
:1043600006460C4617460020104908604FF003002F
:10437000FFF73EFFC4F30740FFF73AFFC4F30720FF
:10438000FFF736FFE0B2FFF733FF002505E0FF201F
:10439000FFF72EFF7055681C85B2BD42F7DB012088
:1043A0000249086000F01CF8BDE8F081B0812142AC
:1043B00010B500240020084908604FF00500FFF701
:1043C00017FFFF20FFF714FF044601200349C1F83F
:1043D000B001204610BD0000B08121420080214282
:1043E00010B500BFFFF7E4FF10F0010FFAD110BDC8
:1043F0002DE9F04781460F4616464FEA1738C7F3B6
:104400000B0ACAF58054A64200DC344644E04FEA69
:1044100008314FF480522248FFF7A0FF002508E042
:104420000AEB05001E49085CFF2800D003E0681C69
:1044300085B2A542F4DB00BFA54216DA4046FFF77D
:104440004DFF002507E019F8050005EB0A01144AA5
:104450005054681C85B2A542F5DB4FEA08314FF491
:1044600080520F4800F01EF804E0224639464846C4
:1044700000F018F8A64200D10FE008F101084FF053
:10448000000AA1442744301B86B2B6F5805F02DDE6
:104490004FF4805400E03446B9E700BFBDE8F08730
:1044A000BE0200202DE9F04107460E461446F0B248
:1044B000C0F58075AC4200DC254612E02A46314644
:1044C000384600F013F8AC4200D10BE02F442E44E4
:1044D000601B84B2B4F5807F02DD4FF4807500E08C
:1044E0002546EBE700BFBDE8F08100002DE9F04173
:1044F00006460C461746FFF7DFFE0020104908600D
:104500004FF00200FFF774FEC4F30740FFF770FEA0
:10451000C4F30720FFF76CFEE0B2FFF769FE002549
:1045200004E0705DFFF764FE681C85B2BD42F8DBF5
:10453000012003490860FFF753FFBDE8F081000048
:10454000B08121420246002013890B4201D0012094
:1045500000E00020704701468889704781817047DC
:1045600010B50022028802F441520B884C88234384
:104570008C882343CC8823430C8923434C892343D1
:104580008C892343CC8923431A430280838B4FF2C7
:10459000FF74234083830B8A038210BD70470000A1
:1045A00010B5FEF7DBF9C1480078002818D0C048E4
:1045B0000088632815DDBE4800888B2811DABD48C5
:1045C000008884280DDDBB480088A22809DA012074
:1045D000B9490870642006F00BFA0020B34908704E
:1045E00063E1B3480088A12815DDB1480088C928D7
:1045F00011DAB048008884280DDDAE480088A22872
:1046000009DA0220AC490870642006F0F1F90020B4
:10461000A649087049E1A6480088DF2816DDA448AD
:104620000088B0F5837F11DCA248008884280DDD66
:10463000A0480088A22809DA03209F490870642056
:1046400006F0D6F90020994908702EE198480088B4
:10465000B0F58F7F16DB96480088B0F5A27F11DC9D
:104660009448008884280DDD92480088A22809DA41
:10467000042091490870642006F0BAF900208B49A3
:10468000087012E18A480088632815DD8848008890
:104690008B2811DA87480088AE280DDD8548008810
:1046A000CC2809DA052084490870642006F0A0F9B6
:1046B00000207E490870F8E07D480088A12815DDBB
:1046C0007B480088C92811DA7A480088AE280DDDB9
:1046D00078480088CC2809DA0620774908706420D9
:1046E00006F086F9002071490870DEE07048008805
:1046F000DF2816DD6E480088B0F5837F11DC6D4839
:104700000088AE280DDD6B480088CC2809DA072028
:1047100069490870642006F06BF90020634908704D
:10472000C3E063480088B0F58F7F16DB60480088DF
:10473000B0F5A27F11DC5F480088AE280DDD5D4832
:104740000088CC2809DA08205B490870642006F04C
:104750004FF9002055490870A7E0554800886328A4
:1047600015DD534800888B2811DA52480088D82874
:104770000DDD50480088F62809DA09204E490870F6
:10478000642006F035F90020484908708DE048485B
:104790000088A12815DD46480088C92811DA454857
:1047A0000088D8280DDD43480088F62809DA0A2059
:1047B00041490870642006F01BF900203B4908704D
:1047C00073E03B480088DF2816DD39480088B0F5E3
:1047D000837F11DC37480088D8280DDD35480088F4
:1047E000F62809DA0B2034490870642006F000F935
:1047F00000202E49087058E02D480088B0F58F7FC2
:1048000016DB2B480088B0F5A27F11DC2948008810
:10481000D8280DDD27480088F62809DA0C2026491B
:104820000870642006F0E4F80020204908703CE09D
:104830001F480088B0F5B07F16DD1D480088B0F530
:10484000C87F11DA1B4800887D280DDD19480088D3
:10485000B92809DA0D2018490870642006F0C8F854
:1048600000201249087020E011480088B0F5B07FA0
:1048700016DD0F480088B0F5C87F11DA0D480088B2
:10488000C3280DDD0B480088FF2809DA0E200A49ED
:104890000870642006F0ACF800200449087004E0B9
:1048A0000020054908700149087010BD650000200E
:1048B00050000020520000201C00002010B500F025
:1048C00001F810BD0CB5002001900090324800683E
:1048D00040F480303049086000BF2F48006800F481
:1048E000003000900198401C0190009818B9019880
:1048F000B0F5A06FF1D12848006810F4003F02D055
:104900000120009001E0002000900098012842D191
:104910002248006840F010002049086008460068FE
:1049200020F0030008600846006840F002000860BC
:104930001948406818494860084640684860084679
:10494000406840F4806048600846406820F47C106D
:1049500048600846406840F4E8104860084600682F
:1049600040F08070086000BF0B48006810F0007FC6
:10497000FAD00948406820F003000749486008461B
:10498000406840F00200486000BF0348406800F003
:104990000C000828F9D10CBD001002400020024094
:1049A0007121074A11804FF0D8410988C8B240F000
:1049B0008000712111804FF0D841088070470000BD
:1049C0000008006C00B502200449088010204FF058
:1049D000D8410880FDF78AF900BD00000008006C8E
:1049E00000B5034600F006FA02200849088006E0F8
:1049F00018784FF0D84108805B1CFDF777F91878DC
:104A00000028F5D1FDF772F900BD00000008006C28
:104A100030B503460C46002500F0ECF902200949A8
:104A2000088008E018784FF0D84108805B1C681CAB
:104A3000C5B2FDF75BF9187808B1A542F2D1FDF7D0
:104A400055F930BD0008006C7047000010B51348E0
:104A5000006840F0010011490860084640681049AC
:104A600008400E494860084600680E4908400B4956
:104A700008600846006820F4802008600846406806
:104A800020F4FE0048604FF41F008860FFF716FF17
:104A90004FF000600449086010BD000000100240A3
:104AA0000000FFF8FFFFF6FE08ED00E010B5012161
:104AB0000F4800F066F8B0B10E480088401C00B204
:104AC0000C49088008460088C82802D101200A49FC
:104AD000087008480088FA2805D100200549088098
:104AE0000120064908700121014800F03BF810BD83
:104AF000000800402C0000200200002003000020DD
:104B00001FB501210420FFF70FF84720ADF804007E
:104B10000020ADF8060040F2E730ADF808000020B4
:104B2000ADF80A0001A90D4800F046F8012211462F
:104B30000B4800F037F81E208DF8000000208DF89B
:104B4000010001208DF802008DF803006846FEF791
:104B50001DFA0121024800F008F81FBD002C014099
:104B600000080040CA430282704721B1028842F027
:104B70000102028004E002884FF6FE731A400280B0
:104B8000704730B50246002000230024158A05EA4C
:104B90000103958905EA010413B10CB1012000E07D
:104BA000002030BD1AB183890B43838102E08389E1
:104BB0008B43838170470000002202881D4B98427E
:104BC0000ED01D4B98420BD0B0F1804F08D01B4B3C
:104BD000984205D01A4B984202D01A4B984204D101
:104BE0004FF68F731A404B881A43174B984207D0E1
:104BF000164B984204D04FF6FF431A40CB881A4315
:104C000002808B8883850B8803850A4B98420BD0E2
:104C1000094B984208D00E4B984205D00D4B984254
:104C200002D00D4B984201D10B7A03860123838277
:104C300070470000002C0140003401400004004097
:104C400000080040000C004000100040001400402C
:104C500000400140004401400048014070B50D2073
:104C6000FCF702FD04460A2C2BD104210020FCF79E
:104C7000E5FC04462046FBF7C6FB05461249FBF758
:104C800013FB1249086004210846FCF7D7FC0446D0
:104C90002046FBF7B8FB05460B49FBF705FB0C4923
:104CA000086002210820FCF7C9FC00B2094908800D
:104CB00002210A20FCF7C2FC00B20749088001204B
:104CC00070BD0020FCE7000020BCBE4C5800002056
:104CD0005C000020600000206200002070B51849D0
:104CE00018480068FBF7AAFA0546FBF7A7FB04463D
:104CF000042221460020FCF7F5FC11491248006807
:104D0000FBF79CFA0546FBF799FB04460422214673
:104D10001046FCF7E7FC02220C48B0F9001008200E
:104D2000FCF7E0FC02220A48B0F900100A20FCF768
:104D3000D9FC0A2421460D20FCF7E9FC70BD0000D7
:104D400020BCBE4C580000205C0000206000002009
:104D50006200002010B500F05FF858B10020FCF7A9
:104D6000FFFC1048007810F0800F15D1C0200D49CD
:104D7000087011E00B48007810F0800F06D0094849
:104D8000007820F080000749087005E005480078A9
:104D900000F0E000034908700248007800F080004D
:104DA00010BD0000640000207121074A11804FF0FF
:104DB000D8410988C8B200F0BF00712111804FF0BE
:104DC000D8410880704700000008006C4321034A66
:104DD00011804FF0D8410880704700000008006C37
:104DE0004221034A11804FF0D841088070470000EB
:104DF0000008006C4021074A11804FF0D841098813
:104E0000C8B240F08000402111804FF0D8410880A6
:104E1000704700000008006C8F20074A10804FF098
:104E2000D8400088C1B201F00400042801D101205B
:104E300070470020FCE700000008006C00BFFEE7A0
:104E40002221074A11804FF0D8410988C8B200F0EA
:104E5000FC00222111804FF0D841088070470000EB
:104E60000008006C2221084A11804FF0D8410988BF
:104E7000C8B200F0FC0040F00100222111804FF088
:104E8000D8410880704700000008006C2DE9F04F01
:104E900089B04FF0000AD04640F20F13002240F2D2
:104EA000DF111046FCF7CCFCFF20FFF78FFFFDF76A
:104EB000B3FFFCF71BFF1421084602F03FFEBDE2E2
:104EC0004FF0000AFFF746FFFE48007800F0C000F0
:104ED000402870D1FC48008805A921F82800FB482B
:104EE000008801EB8801488008F1010000F0FF080C
:104EF000F448007820F04000F2490870B8F1010F42
:104F000009D0B8F1020F1BD0B8F1030F2CD0B8F1C3
:104F1000040F14D13DE040F20F13002240F2DF11E4
:104F20001046FCF78DFCFF20FFF750FFFDF774FFE4
:104F3000FCF7DCFE14214FF4E67002F0FFFD70E296
:104F400040F20F13002240F2DF111046FCF778FC0C
:104F5000FF20FFF73BFFFDF75FFFFCF7C7FEFC21DB
:104F6000142002F0EBFD5CE240F20F13002240F24D
:104F7000DF111046FCF764FCFF20FFF727FFFDF769
:104F80004BFFFCF7B3FEFC214FF4E67002F0D6FDB8
:104F900047E2BDF81410BDF81820881A01D4014664
:104FA00000E041420C46BDF81620BDF81A10501A18
:104FB00002D4014601E035E241420D4664436D43AF
:104FC0006019FBF72EFACDE9000105F023FDCDE9CC
:104FD0000201FBF760FA1FFA80FBBDF81C10BDF858
:104FE0002020881A01D4014600E041420C46BDF859
:104FF0001E20BDF82210501A01D4014600E04142A3
:105000000D4664436D436019FBF70BFACDE90001CF
:1050100005F000FDCDE90201FBF73DFA80B20490F6
:105020000498FBF7F9F903905846FBF7F5F902905D
:105030000399FBF739F98146FBF746FA06460F4616
:105040004FF06632A24B30463946FBF751FA0BD38C
:10505000A04AA14B30463946FBF75EFA04D3BBF1B8
:10506000000F01D00498A8B94FF0000840F20F13C8
:10507000002240F2DF111046FCF7E2FBFF20FFF7B1
:10508000A5FEFDF7C9FEFCF731FE1421084602F02B
:1050900055FDD3E1BDF81410BDF81C20881A01D4C9
:1050A000014600E041420C46BDF81620BDF81E1036
:1050B000501A01D4014600E041420D4664436D435D
:1050C0006019FBF7AEF9CDE9000105F0A3FCCDE9CD
:1050D0000201FBF7E0F91FFA80FBBDF81810BDF8DC
:1050E0002020881A01D4014600E041420C46BDF858
:1050F0001A20BDF82210501A01D4014600E04142A6
:105100000D4664436D436019FBF78BF9CDE900014F
:1051100005F080FCCDE90201FBF7BDF980B20490F7
:105120000498FBF779F903905846FBF775F902905C
:105130000399FBF7B9F88146FBF7C6F906460F4617
:105140004FF06632624B30463946FBF7D1F906D351
:10515000604A614B30463946FBF7DEF915D24FF015
:10516000000840F20F13002240F2DF111046FCF756
:1051700067FBFF20FFF72AFEFDF74EFEFCF7B6FDAA
:105180001421084602F0DAFC58E1BDF81810BDF809
:105190001C20881A01D4014600E041420C46BDF8AB
:1051A0001A20BDF81E10501A01D4014600E04142F9
:1051B0000D4664436D436019FBF733F9CDE90001F7
:1051C00005F028FCCDE90201FBF765F91FFA80FB29
:1051D000BDF81410BDF82020881A01D4014600E063
:1051E00041420C46BDF81620BDF82210501A01D4D9
:1051F000014600E041420D4664436D436019FBF7F0
:1052000010F9CDE9000105F005FCCDE90201FBF73D
:1052100042F980B204900498FBF7FEF803905846D8
:10522000FBF7FAF802900399FBF73EF88146FBF78B
:105230004BF906460F464FF06632254B304639464D
:10524000FBF756F906D3234A234B30463946FBF782
:1052500063F915D24FF0000840F20F13002240F21C
:10526000DF111046FCF7ECFAFF20FFF7AFFDFDF76A
:10527000D3FDFCF73BFD1421084602F05FFCDDE0A6
:10528000BDF81810BDF81420881AFBF7BCF8814649
:1052900049461248FBF708F811490860BDF8181094
:1052A000BDF814208818FBF7AEF801900C4801688F
:1052B0000198FAF7C3FF0B490290FAF7BCFF4FF0D1
:1052C000804111E0640000204000002042000020E6
:1052D0006666EE3FCDCCCCCCCCCCF03F0000DC43BE
:1052E000580000200000F0430390FAF7DDFF8146EC
:1052F000FBF7A4F800B253490880BDF81E10BDF8B2
:105300001620881AFBF77FF8814649464E48FAF77F
:10531000CBFF4E490860BDF81E10BDF81620881856
:10532000FBF771F80190494801680198FAF786FF88
:1053300047490290FAF77FFF4FF080410390FAF758
:10534000B3FF8146FBF77AF800B242490880424831
:105350000068FBF773F80390002801DB039801E075
:105360000398404202280CDC38480068FBF766F8D6
:10537000B0F1000901DB484601E0C9F10000022854
:1053800015DD4FF0000840F20F13002240F2DF114C
:105390001046FCF755FAFF20FFF718FDFDF73CFD1E
:1053A000FCF7A4FC1421084602F0C8FB46E040F2DA
:1053B0000F13002240F2DF111046FCF741FAFF20E4
:1053C000FFF704FDFDF728FD4FF47A70FCF7DCFCD5
:1053D000FFF710FD0320FFF703FD1F20FFF7F6FC8A
:1053E000FCF7A0FDFCF7B0FD3C230022D9001046DD
:1053F000FCF726FAAA21642000F03CF8FCF762FCD6
:1054000016A0FFF7EDFAFDF70DFEFCF7CBFFFFF757
:1054100065FC6420FCF7B8FCFFF720FC09B0BDE890
:10542000F08F00BF0A20FCF7AFFC0AF1010ABAF5C1
:105430007A7F02DDFFF712FC01E000BF40E500BF0C
:1054400000BFEBE760000020000068435C00002024
:10545000000088436200002058000020546F7563EC
:10546000682053637265656E2041646A75737420A9
:105470004F4B210010B50246D0B246230B4C23807F
:105480004FF0D84318801012472323804FF0D843A1
:105490001880C8B2482323804FF0D84318800812E0
:1054A000492323804FF0D843188010BD0008006CBA
:1054B0000FB4084B10B504A902AA039800F0D0F865
:1054C000044602A9002000F06EFC204610BC5DF8E6
:1054D00014FB0000A75D000802E008C8121F08C105
:1054E000002AFAD170477047002001E001C1121F65
:1054F000002AFBD170470000014908607047000096
:105500006C0000202DE9FF5FDDE90220010DDDF8D0
:1055100038B0024310D10F9801244CA2012808D0C2
:10552000002100980F9BC0E90021C0E90243BDE8BB
:10553000FF9F6FEA0B01F4E7A1F2FF3144F6105030
:1055400041430D140F9801280ED0A5EB0B00401C11
:105550004FF000043E4EDFF8FC90B0F1000AA04688
:1055600005DACAF1000717E0CBF10000F0E70746C3
:1055700012E0F80707D02246334640464946FBF77B
:10558000A2F9804689462246334610461946FBF763
:105590009AF904460E467F10002FEAD1DDE9020198
:1055A000BAF1000F42464B4602DAFBF78CF901E0F4
:1055B000FAF7BAFE04460E460022274BFAF7ACFF74
:1055C00003D84FF0FF30014607E00022234B20466E
:1055D0003146FBF7D1F8FBF739FA102409E0002C2B
:1055E0000ADB0A220023FAF7F1FF019B30321A5539
:1055F000641E50EA0102F2D1641C019AC4F1110345
:1056000014440F9A012A09D00122084301D15B45B5
:105610000FDD4FF0000205F101050DE0084303D155
:10562000A3EB0B056D1E09E000204FF0110B0F904E
:1056300088E701DA00226D1E002A83D000980F99B6
:10564000C0E90231C0E9004571E700003000000008
:10565000000024400000F03F0000F0430000E03F65
:105660002DE9FF4F95B09B4689460646002512E27C
:10567000252878D10024761CF94A27460121059473
:105680003378203B01FA03F0104202D00443761C29
:10569000F6E730782A2811D06FF02F033078A0F188
:1056A0003002092A16D8059A44F0020402EB82025D
:1056B00003EB42021044761C0590EFE759F8042BE7
:1056C0000592002A03DA504244F40054059044F055
:1056D0000204761C30782E2816D116F8010F44F0FB
:1056E00004042A280DD06FF02F023078A0F1300387
:1056F000092B09D807EB870302EB4303C718761C75
:10570000F3E759F8047B761C30786C280FD006DC60
:105710004C2817D068280DD06A2814D104E07428CA
:1057200010D07A280FD10DE044F400140AE044F4BC
:10573000801401E044F440147278824202D1761C55
:1057400004F58014761C307866280BD013DC5828BA
:1057500077D009DC002875D04528F6D04628F4D04B
:1057600047281AD19FE118E0632835D0642879D002
:10577000652812D197E1702873D008DC6728F1D032
:1057800069286FD06E280DD06F2806D1B5E0732838
:105790002CD0752875D0782874D05A461799904720
:1057A0006D1C76E1C4F30250022809D003280DD005
:1057B000D9F8001004280DD00D6009F1040968E142
:1057C000D9F80010EA17C1E90052F6E7D9F800103D
:1057D0000D80F2E70D70F0E719F8041B8DF800104A
:1057E00000208DF80100EA46012003E059F804ABDF
:1057F0004FF0FF3061074FF0000102D40DE008F1D7
:1058000001018846B9420FDA8045F8DB1AF8081022
:105810000029F4D108E008F1010188468142FADB51
:105820001AF808100029F6D105985B46A0EB080786
:1058300021463846179A00F09EFA284400EB0805E6
:1058400007E04DE02BE10DE01AF8010B5A461799DD
:105850009047B8F10108F7D25B4621463846179ABF
:1058600014E142E00A220092C4F302524FF0000A0F
:10587000022A08D059F804CB032A4FEAEC710AD067
:105880000DE029E02AE009F1070121F00702F2E822
:1058900002C1914609E00FFA8CFC4FEAEC71042A30
:1058A00003D14FFA8CFC4FEAEC71002907DA0A4663
:1058B0000021DCF1000C61EB02012D2202E0220547
:1058C00004D52B228DF80420012203E0E20701D049
:1058D0002022F7E7904653E00A2102E010220DE073
:1058E00010214FF0000A00910BE010224FF0000A47
:1058F00044F004040827009203E008224FF0000A55
:105900000092C4F30252022A05D059F804CB0021B8
:10591000032A08D009E009F1070121F00702F2E8A3
:1059200002C1914605E01FFA8CFC042A01D10CF05B
:10593000FF0C4FF00008220722D5702827D0009BCB
:1059400083F0100353EA0A0309D15CEA010206D08E
:1059500030228DF804208DF8050002229046009B2D
:1059600083F0080353EA0A030AD15CEA010201D179
:10597000620705D530228DF804204FF001087F1E04
:10598000582809D037A003900EA8029013E04022B7
:105990008DF804200122E1E737A0F4E75346604682
:1059A000009AFAF713FE84460398825C0298A0F1ED
:1059B0000100029002705CEA0100EFD1029806A992
:1059C000A1EB000000F1200A600702D524F4803426
:1059D00000E00127574502DDA7EB0A0000E00020A8
:1059E00000EB0A01009005984144A0EB01000590EE
:1059F000E00306D45B462146179A059800F0BBF9F0
:105A00000544002706E001A85A46C05D1799904753
:105A10006D1C7F1C4745F6DBE0030CD55B46214639
:105A2000179A059800F0A7F9054404E030205A467B
:105A3000179990476D1C0099481E00900029F5DCCD
:105A400008E0029802995A460078491C0291179979
:105A500090476D1CBAF10001AAF1010AF1DC6BE17B
:105A60000928010030313233343536373839616234
:105A700063646566000000003031323334353637F8
:105A800038394142434445460000000000F060F9C7
:105A9000054406F10106307800287FF4E9AD19B01D
:105AA0002846BDE8F08F620700D4062709F10702F7
:105AB00022F0070CFCE80223E14603F000485FEA0D
:105AC000080C02D00FF27C2C0DE05FEA045C02D5DA
:105AD0000FF2742C07E05FEAC47C02D00FF26C2C4A
